:100000000C942A000C9447000C9447000C94470071
:100010000C9447000C9447000C9447000C94470044
:100020000C9447000C9447000C9447000C944A022F
:100030000C9447000C9449000C9473000C944700F6
:100040000C9447000C9447000C9447000C94470014
:100050000C94470011241FBECFE5D8E0DEBFCDBF12
:1000600011E0A0E6B0E0ECE7F5E102C005900D92EA
:10007000AE36B107D9F711E0AEE6B1E001C01D928E
:10008000A83EB107E1F70E94D9030C94BC0A0C9476
:1000900000001F920F920FB60F9211242F938F938F
:1000A0009F93EF93FF939BB12CB1E091B001EF5F71
:1000B000EF718091B101E81711F482E008C0892F37
:1000C0008871E093B001F0E0E257FE4F2083809307
:1000D000B201FF91EF919F918F912F910F900FBEE1
:1000E0000F901F9018951F920F920FB60F92112428
:1000F0008F939F93EF93FF939091AE018091AF0107
:10010000981761F0E091AF01EF5FEF71E093AF01FD
:10011000F0E0E259FE4F80818CB901C05598FF9103
:10012000EF919F918F910F900FBE0F901F90189598
:100130009C011092AE011092AF011092B00110928A
:10014000B10197FF03C082E08BB93F7730BD29B979
:1001500088E98AB986E880BD08959091B0018091C0
:10016000B101981719F420E031E012C0E091B1011B
:10017000EF5FEF71E093B101F0E0E257FE4F3081A5
:100180002091B201922F80E0AC01430F511D9A01E2
:10019000C9010895282F9091AE019F5F9F718091B2
:1001A000AF019817E1F3E92FF0E0E259FE4F208309
:1001B0009093AE01559A0895DC0111C09091AE0163
:1001C0009F5F9F718091AF019817E1F31196E92F1E
:1001D000F0E0E259FE4F20839093AE01559A2C91A6
:1001E000222361F70895AC0110C02091AE012F5F6A
:1001F0002F718091AF012817E1F3E22FF0E0E2596F
:10020000FE4F90832093AE01559AFA014F5F5F4FE6
:100210009491992351F708950F931F93182F062F48
:100220008C3088F467FD0FC084E80E942A03812F78
:100230000E942A03802F0E942A0385E50E942A0338
:100240008AE20E942A031F910F9108951F93182F8D
:1002500086E80E942A03812F0E942A0387E80E94D1
:100260002A03812F0E942A031F9108951F93182F9C
:100270008AE80E942A03812F0E942A038EE80E94A6
:100280002A03812F0E942A031F9108951F93182F7C
:1002900088E80E942A03812F0E942A038CE80E948A
:1002A0002A03812F0E942A031F9108950E94F402BD
:1002B000D898D09A80EA9FE00197F1F7D09880E42F
:1002C0009CE90197F1F78AEA0E942A030895AF9208
:1002D000BF92CF92DF92EF92FF920F931F93C49A37
:1002E00001C0C39AC999FDCFBC0180E090E00E9493
:1002F00017085B016C0120E030E04AE755E40E94FA
:1003000039067B018C0120E030E040E85FE30E9489
:10031000930788231CF461E070E024C020E03FEFE5
:100320004FE757E4C801B7010E9433071816B4F429
:1003300020E030E040E251E4C601B5010E943906F8
:100340000E94630480E991E005C0FC013197F1F758
:100350006150704061157105C1F707C0C801B70150
:100360000E946304CB010197F1F7C39888B3877E9D
:1003700088BB1F910F91FF90EF90DF90CF90BF90BF
:10038000AF900895AF92BF92CF92DF92EF92FF921B
:100390000F931F93C49A01C0C29ACA99FDCFBC01A2
:1003A00080E090E00E9417085B016C0120E030E0E3
:1003B0004AE755E40E9439067B018C0120E030E0D9
:1003C00040E85FE30E94930788231CF461E070E03B
:1003D00024C020E03FEF4FE757E4C801B7010E9477
:1003E00033071816B4F420E030E040E251E4C601CF
:1003F000B5010E9439060E94630480E991E005C0BE
:10040000FC013197F1F76150704061157105C1F73A
:1004100007C0C801B7010E946304CB010197F1F73F
:10042000C29888B38B7E88BB1F910F91FF90EF908D
:10043000DF90CF90BF90AF900895C9990BC0C49A38
:10044000C39801C0C29AC99BFDCFC29888B38B7E66
:1004500088BB0895CA9913C0C49AC29801C0C39AB0
:10046000CA9BFDCF88EE93E020E931E0F901319796
:10047000F1F70197D9F7C39888B3877E88BB0895B1
:1004800087B38C6187BB8BB386608BBB0E941D02D8
:10049000089508951F920F920FB60F9211242F9373
:1004A0003F938F939F93EF93FF9387EF82BF80914A
:1004B000D901882359F18091DB0181508093DB01C0
:1004C0008091DB01882311F52091E1013091E20157
:1004D0008091E1019091E201959587959093E201D9
:1004E0008093E10120FF02C0979A01C0979883E0B2
:1004F0008093DB018091DD0181508093DD0180914B
:10050000DD01882319F41092D901979A8091D601C0
:10051000882309F05EC08091D501882319F180916C
:10052000DA0181508093DA01882309F052C01092D9
:10053000D5011092D8018091E001823C09F449C0B4
:10054000E091B401F0E0EB54FE4F80838091B40160
:100550008F5F8093B4018091B4018032D0F110920A
:10056000B40137C08091D801882389F4869931C0BD
:1005700081E08093D8011092E00194E09093DA0139
:100580009091DE019093DC018093D70122C080918D
:10059000DA0181508093DA018823D9F483E08093D3
:1005A000DA01869B07C08091E0019091D701892BE9
:1005B0008093E0018091D701880F8093D7018091CB
:1005C000DC0181508093DC01882319F481E0809361
:1005D000D501FF91EF919F918F913F912F910F90B6
:1005E0000FBE0F901F9018951092D9011092D8014C
:1005F0001092D5011092D6018AE08093DE0180939B
:10060000DF018E98969A8F9A979A83E083BF87EF3F
:1006100082BF89B7816089BF08959091B4018091AC
:10062000B3018917D1F3E091B301F0E0EB54FE4F31
:10063000E0818091B3018F5F8093B3018091B3011A
:10064000803210F01092B301EA3039F3E23C29F322
:100650008E2F0895982F8091D9018823E1F79093E8
:10066000E30183E08093DB018091DF018093DD0172
:10067000892F90E0880F991F92609093E2018093F8
:10068000E10181E08093D90108951092B4011092A4
:10069000B30108959091B3018091B40120E08913D2
:1006A00021E0822F08951092D601089581E0809371
:1006B000D601089587B3836087BB88B38C7F88BBDE
:1006C000089587B38C6087BB88B3837F88BB089508
:1006D00088B3837F88BB87B3837F87BB089588B344
:1006E0008C7F88BB87B38C7F87BB089587B383607B
:1006F00087BB88B38C7F88BBC198C09A089587B3A5
:10070000836087BB88B38C7F88BBC098C19A0895EB
:1007100087B3836087BB88B38C7F88BBC098C19840
:1007200088B38C7F88BB87B38C7F87BB089587B3E2
:100730008C6087BB88B3837F88BBC298C39A0895B7
:1007400087B38C6087BB88B3837F88BBC398C29A0A
:10075000089587B38C6087BB88B3837F88BBC298BA
:10076000C39888B3837F88BB87B3837F87BB089593
:10077000982FE0E6F0E08081981711F481E0089569
:10078000319680E0E636F807B1F780E008950895E5
:100790008AEA0E94CA008AEA0E94CA0080E091E0C8
:1007A0009093E7018093E6019093E9018093E8013B
:1007B00008951F93CF93DF9387E690E00E949800FF
:1007C0002EE088E190E00FB6F894A89581BD0FBEA9
:1007D00021BD78940E94C80311E0C0E0D1E0A89543
:1007E00007C0A8950E94AD009093E7018093E601B1
:1007F0008091E6019091E7018050914091F38091C2
:10080000E6019091E701982FE0E6F0E080819817EB
:1008100031F0319680E0E636F807C1F71DC010933D
:10082000E4010FC0A8950E94AD009093E901809368
:10083000E8018091E8019091E9018A3011F4109368
:10084000E5018091E8019091E9018050914051F3D8
:10085000D093E901C093E8018091E401882351F12C
:100860008091E501882331F1A8958091E60190916E
:10087000E701823389F0833328F4803381F08133B8
:10088000C9F407C0843389F0843390F0853391F440
:1008900009C00E947F030EC00E9476030BC00E9415
:1008A000880308C00E94970305C00E94A00302C0ED
:1008B0000E94A9031092E4011092E501D093E70190
:1008C000C093E6018CCFEF92FF920F931F937B01B1
:1008D0008C0120E030E040E05FE40E946307882361
:1008E0008CF020E030E040E05FE4C801B7010E94F6
:1008F000DB050E94C3079B01AC0120503040404003
:10090000504806C0C801B7010E94C3079B01AC0153
:10091000B901CA011F910F91FF90EF900895A0E0D7
:10092000B0E0E5E9F4E00C94850ADC012B01FA0162
:100930009C91923008F439C1EB018881823008F42F
:1009400033C1943069F4843009F02FC111969C9121
:1009500011978981981709F428C1A6E6B0E025C14E
:10096000843009F421C18230A9F4923009F01DC10C
:100970009A01AD0188E0EA010990AE01E90109920E
:100980009E018150C1F7E201898111969C918923D2
:10099000818308C1923009F407C112962D903C90D2
:1009A0001397EB018A819B811496AD90BD90CD90F9
:1009B000DC901797EC80FD800E811F819101281B30
:1009C000390BB90137FF04C066277727621B730B09
:1009D000603271050CF061C0121613066CF5370118
:1009E0004801062E04C096948794779467940A94DD
:1009F000D2F721E030E040E050E004C0220F331F86
:100A0000441F551F6A95D2F7215030404040504056
:100A10002E213F2140235123211531054105510548
:100A200021F021E030E040E050E079018A01E62841
:100A3000F728082919293CC0232BD1F1260E371E8F
:100A400035014601062E04C09694879477946794E6
:100A50000A94D2F721E030E040E050E004C0220FD9
:100A6000331F441F551F6A95D2F721503040404034
:100A700050402A213B214C215D21211531054105A2
:100A8000510521F021E030E040E050E059016A01D9
:100A9000A628B728C828D9280BC0821593052CF0A2
:100AA0001C01AA24BB24650103C0EE24FF24870196
:100AB00011969C91D20111968C91981709F445C01A
:100AC000992339F0A80197012A193B094C095D09BE
:100AD00006C0A60195012E193F09400B510B57FD89
:100AE00008C0118233822282248335834683578350
:100AF0001DC081E081833382228288279927DC010F
:100B0000821B930BA40BB50B84839583A683B783B9
:100B10000DC0220F331F441F551F24833583468386
:100B200057838281938101979383828324813581C6
:100B300046815781DA01C9010197A109B1098F5F87
:100B40009F4FAF4FBF4328F30BC091833382228264
:100B5000EA0CFB1C0C1D1D1DE482F5820683178325
:100B600083E08083248135814681578157FF1AC0F5
:100B7000C901AA2797FDA095BA2F81709070A07027
:100B8000B0705695479537952795822B932BA42BBC
:100B9000B52B84839583A683B78382819381019645
:100BA00093838283DF0101C0D201CD01CDB7DEB7CF
:100BB000E2E10C94A10AA0E2B0E0E1EEF5E00C94D1
:100BC000910A69837A838B839C832D833E834F8331
:100BD0005887E9E0EE2EF12CEC0EFD1EB701CE0198
:100BE00001960E94B4098E010F5E1F4FB801CE011D
:100BF00005960E94B4098A8991E089278A8BAE0103
:100C0000475E5F4FB801C7010E948F040E94DF0852
:100C1000A096E6E00C94AD0AA0E2B0E0E2E1F6E0D6
:100C20000C94910A69837A838B839C832D833E8302
:100C30004F835887F9E0EF2EF12CEC0EFD1EB70123
:100C4000CE0101960E94B4098E010F5E1F4FB801BC
:100C5000CE0105960E94B409AE01475E5F4FB80110
:100C6000C7010E948F040E94DF08A096E6E00C9462
:100C7000AD0AA0E2B0E0EFE3F6E00C94850A6983E8
:100C80007A838B839C832D833E834F835887BE0159
:100C9000675F7F4FCE0101960E94B409BE016F5E6F
:100CA0007F4FCE0105960E94B4099985923088F055
:100CB00089898230C8F0943019F4823051F404C02C
:100CC000843029F4923081F486E690E0C6C09230F8
:100CD00049F420E09A858A89981321E02A87CE0179
:100CE0000996BBC0823049F420E09A858A8998131E
:100CF00021E02A8BCE014196B0C02D843E844F84E2
:100D000058886D887E888F88988CEE24FF24870110
:100D1000AA24BB24650140E050E060E070E0E0E020
:100D2000F0E0C10181709070892BE9F0E60CF71CAE
:100D3000081D191D9A01AB012A0D3B1D4C1D5D1D9F
:100D400080E090E0A0E0B0E0E614F70408051905A3
:100D500020F481E090E0A0E0B0E0BA01A901480FE2
:100D6000591F6A1F7B1FAA0CBB1CCC1CDD1C97FEE5
:100D700008C081E090E0A0E0B0E0A82AB92ACA2A21
:100D8000DB2A3196E032F10549F0660C771C881CAD
:100D9000991C5694479437942794C3CFFA85EA89CF
:100DA0002B893C898B859C85280F391F2E5F3F4FEF
:100DB00017C0CA0181709070892B61F01695079554
:100DC000F794E79480E090E0A0E0B0E8E82AF92A00
:100DD0000A2B1B2B76956795579547952F5F3F4FAD
:100DE00077FDE7CF0CC0440F551F661F771F17FD17
:100DF0004160EE0CFF1C001F111F2150304040309D
:100E000090E0590790E0690790E4790760F32B8F31
:100E10003C8FDB01CA018F779070A070B070803476
:100E20009105A105B10561F447FD0AC0E114F10483
:100E30000105110529F0405C5F4F6F4F7F4F4078EF
:100E40001A8EFE1711F081E08A8F4D8F5E8F6F8FA3
:100E500078A383E0898FCE0149960E94DF08A0968F
:100E6000E2E10C94A10AA8E1B0E0E9E3F7E00C9418
:100E7000910A69837A838B839C832D833E834F837E
:100E8000588789E0E82EF12CEC0EFD1EB701CE014B
:100E900001960E94B4098E010F5E1F4FB801CE016A
:100EA00005960E94B4098985823040F08989823094
:100EB00028F0B801C7010E942C0A01C08FEF689684
:100EC000E6E00C94AD0AA8E1B0E0E9E6F7E00C94A6
:100ED000910A69837A838B839C832D833E834F831E
:100EE000588789E0E82EF12CEC0EFD1EB701CE01EB
:100EF00001960E94B4098E010F5E1F4FB801CE010A
:100F000005960E94B4098985823040F08989823033
:100F100028F0B801C7010E942C0A01C08FEF689623
:100F2000E6E00C94AD0AA8E1B0E0E9E9F7E00C9442
:100F3000910A69837A838B839C832D833E834F83BD
:100F4000588789E0E82EF12CEC0EFD1EB701CE018A
:100F500001960E94B4098E010F5E1F4FB801CE01A9
:100F600005960E94B4098985823040F089898230D3
:100F700028F0B801C7010E942C0A01C081E06896E0
:100F8000E6E00C94AD0AACE0B0E0E9ECF7E00C94DC
:100F9000950A69837A838B839C83BE016B5F7F4F45
:100FA000CE0101960E94B4098D81823061F18230B8
:100FB00050F1843021F48E81882351F12EC02F818D
:100FC000388537FD20C06E812F3131051CF0662336
:100FD000F9F023C08EE190E0821B930B29853A85BE
:100FE0004B855C8504C056954795379527958A951E
:100FF000D2F76623B1F050954095309521953F4F3B
:101000004F4F5F4F0EC020E030E040E050E009C09D
:101010002FEF3FEF4FEF5FE704C020E030E040E00C
:1010200050E8B901CA012C96E2E00C94B10AA8E09C
:10103000B0E0EDE1F8E00C948F0A7B018C016115C2
:1010400071058105910519F482E0898360C083E010
:1010500089838EE1C82ED12CDC82CB82ED82FE8288
:101060000F831887C801B7010E949008BC01615026
:10107000704077FF39C0EE27FF27E61BF70B20E013
:1010800030E040E050E081E090E0A0E0B0E00E2EE3
:1010900004C0880F991FAA1FBB1F0A94D2F701979B
:1010A000A109B1098E219F21A023B1230097A10599
:1010B000B10521F021E030E040E050E004C0169599
:1010C0000795F794E794EA95D2F72E293F29402B0C
:1010D000512B2D833E834F8358878EE190E0861BF2
:1010E000970B9C838B8313C06115710581F0062ECD
:1010F00004C0EE0CFF1C001F111F0A94D2F7ED82F2
:10110000FE820F831887C61AD70ADC82CB821A8226
:10111000CE0101960E94DF082896E8E00C94AB0A05
:10112000EF92FF920F931F937B018C0180E0E816F2
:1011300080E0F80681E0080780E0180788F48FEF68
:10114000E816F1040105110531F028F088E090E07F
:10115000A0E0B0E017C080E090E0A0E0B0E012C0F6
:1011600080E0E81680E0F80680E0080781E01807D4
:1011700028F088E190E0A0E0B0E004C080E190E0D9
:10118000A0E0B0E020E230E040E050E0281B390B66
:101190004A0B5B0B04C016950795F794E7948A9564
:1011A000D2F7F701E259FF4F8081281B310941092D
:1011B0005109C9011F910F91FF90EF900895DF929F
:1011C000EF92FF920F931F93FC01E480F58006815C
:1011D0001781D1808081823048F480E090E0A0E1E6
:1011E000B0E0E82AF92A0A2B1B2BA5C0843009F4A9
:1011F0009FC0823021F4EE24FF24870105C0E11452
:10120000F1040105110519F4E0E0F0E096C06281F7
:1012100073819FEF623879070CF05BC022E83FEFE3
:10122000261B370B2A3131052CF020E030E040E05E
:1012300050E02AC0B801A701022E04C07695679538
:10124000579547950A94D2F781E090E0A0E0B0E08E
:1012500004C0880F991FAA1FBB1F2A95D2F70197B8
:10126000A109B1098E219F21A023B1230097A105D7
:10127000B10521F081E090E0A0E0B0E09A01AB017F
:10128000282B392B4A2B5B2BDA01C9018F77907001
:10129000A070B07080349105A105B10539F427FF25
:1012A00009C0205C3F4F4F4F5F4F04C0215C3F4F50
:1012B0004F4F5F4FE0E0F0E02030A0E03A07A0E0C1
:1012C0004A07A0E45A0710F0E1E0F0E079018A0152
:1012D00027C06038710564F5FB01E158FF4FD80164
:1012E000C7018F779070A070B07080349105A10510
:1012F000B10539F4E7FE0DC080E490E0A0E0B0E075
:1013000004C08FE390E0A0E0B0E0E80EF91E0A1FF1
:101310001B1F17FF05C016950795F794E7943196A4
:1013200087E016950795F794E7948A95D1F705C05D
:10133000EE24FF248701EFEFF0E06E2F679566271C
:101340006795902F9F77D794DD24D7948E2F86951D
:10135000492F462B582F5D29B701CA011F910F91C4
:10136000FF90EF90DF900895FC01DB0140815181F7
:101370002281622F6F7770E0221F2227221F938124
:10138000892F880F822B282F30E0991F9927991FCA
:1013900011969C93119721153105A9F54115510519
:1013A0006105710511F482E037C082E89FEF139662
:1013B0009C938E9312979A01AB0167E0220F331F23
:1013C000441F551F6A95D1F783E08C930DC0220FFF
:1013D000331F441F551F12968D919C9113970197AF
:1013E00013969C938E931297203080E0380780E00C
:1013F000480780E4580758F314962D933D934D9376
:101400005C93179708952F3F310579F441155105E5
:101410006105710519F484E08C93089564FF03C09D
:1014200081E08C9312C01C9210C02F57304013964D
:101430003C932E93129783E08C9387E0440F551FC3
:10144000661F771F8A95D1F7706414964D935D934C
:101450006D937C93179708951F93DC01FB019C917A
:10146000923008F447C08081823008F443C0943041
:1014700051F411961C91843099F58181682F70E0A8
:10148000611B71093FC0843021F0923031F4823009
:10149000B9F18181882389F12DC011961C91119792
:1014A0008230F1F081811817D9F412962D913C9178
:1014B0001397828193818217930794F02817390735
:1014C000BCF014968D919D910D90BC91A02D24811E
:1014D000358146815781281739074A075B0718F479
:1014E000112341F00AC082179307A407B50740F4FF
:1014F000112319F061E070E005C06FEF7FEF02C0CB
:1015000060E070E0CB011F9108952F923F924F92BF
:101510005F926F927F928F929F92AF92BF92CF9283
:10152000DF92EF92FF920F931F93CF93DF93CDB78C
:10153000DEB7CA1BDB0B0FB6F894DEBF0FBECDBF04
:1015400009942A88398848885F846E847D848C84D5
:101550009B84AA84B984C884DF80EE80FD800C81DE
:101560001B81AA81B981CE0FD11D0FB6F894DEBFC1
:0C1570000FBECDBFED010895F894FFCF31
:10157C00303132353433000000000000000000012F
:10158C000202030303030404040404040404050515
:10159C0005050505050505050505050505050606ED
:1015AC0006060606060606060606060606060606CF
:1015BC0006060606060606060606060606060707BD
:1015CC00070707070707070707070707070707079F
:1015DC00070707070707070707070707070707078F
:1015EC00070707070707070707070707070707077F
:1015FC00070707070707070707070707070708086D
:10160C00080808080808080808080808080808084E
:10161C00080808080808080808080808080808083E
:10162C00080808080808080808080808080808082E
:10163C00080808080808080808080808080808081E
:10164C00080808080808080808080808080808080E
:10165C0008080808080808080808080808080808FE
:10166C0008080808080808080808080808080808EE
:0E167C000808080808080808080808080808F0
:040000030000079062
:00000001FF
